{
  "contractName": "TicketSystem",
  "abi": [
    {
      "inputs": [],
      "stateMutability": "nonpayable",
      "type": "constructor"
    },
    {
      "anonymous": false,
      "inputs": [
        {
          "indexed": true,
          "internalType": "address",
          "name": "owner",
          "type": "address"
        },
        {
          "indexed": true,
          "internalType": "address",
          "name": "approved",
          "type": "address"
        },
        {
          "indexed": true,
          "internalType": "uint256",
          "name": "tokenId",
          "type": "uint256"
        }
      ],
      "name": "Approval",
      "type": "event"
    },
    {
      "anonymous": false,
      "inputs": [
        {
          "indexed": true,
          "internalType": "address",
          "name": "owner",
          "type": "address"
        },
        {
          "indexed": true,
          "internalType": "address",
          "name": "operator",
          "type": "address"
        },
        {
          "indexed": false,
          "internalType": "bool",
          "name": "approved",
          "type": "bool"
        }
      ],
      "name": "ApprovalForAll",
      "type": "event"
    },
    {
      "anonymous": false,
      "inputs": [
        {
          "indexed": false,
          "internalType": "uint256",
          "name": "id",
          "type": "uint256"
        },
        {
          "indexed": false,
          "internalType": "string",
          "name": "name",
          "type": "string"
        },
        {
          "indexed": false,
          "internalType": "address",
          "name": "owner",
          "type": "address"
        },
        {
          "indexed": false,
          "internalType": "uint256",
          "name": "maxTicketCount",
          "type": "uint256"
        },
        {
          "indexed": false,
          "internalType": "uint256",
          "name": "price",
          "type": "uint256"
        },
        {
          "indexed": false,
          "internalType": "uint256",
          "name": "date",
          "type": "uint256"
        },
        {
          "indexed": false,
          "internalType": "uint256",
          "name": "returnDate",
          "type": "uint256"
        }
      ],
      "name": "CreateEvent",
      "type": "event"
    },
    {
      "anonymous": false,
      "inputs": [
        {
          "indexed": true,
          "internalType": "address",
          "name": "previousOwner",
          "type": "address"
        },
        {
          "indexed": true,
          "internalType": "address",
          "name": "newOwner",
          "type": "address"
        }
      ],
      "name": "OwnershipTransferred",
      "type": "event"
    },
    {
      "anonymous": false,
      "inputs": [
        {
          "indexed": true,
          "internalType": "address",
          "name": "from",
          "type": "address"
        },
        {
          "indexed": true,
          "internalType": "address",
          "name": "to",
          "type": "address"
        },
        {
          "indexed": true,
          "internalType": "uint256",
          "name": "tokenId",
          "type": "uint256"
        }
      ],
      "name": "Transfer",
      "type": "event"
    },
    {
      "anonymous": false,
      "inputs": [
        {
          "indexed": false,
          "internalType": "uint256",
          "name": "eventId",
          "type": "uint256"
        },
        {
          "indexed": false,
          "internalType": "address",
          "name": "owner",
          "type": "address"
        },
        {
          "indexed": false,
          "internalType": "uint256",
          "name": "withdrawedAmount",
          "type": "uint256"
        }
      ],
      "name": "Withdraw",
      "type": "event"
    },
    {
      "stateMutability": "payable",
      "type": "fallback",
      "payable": true
    },
    {
      "inputs": [
        {
          "internalType": "address",
          "name": "to",
          "type": "address"
        },
        {
          "internalType": "uint256",
          "name": "tokenId",
          "type": "uint256"
        }
      ],
      "name": "approve",
      "outputs": [],
      "stateMutability": "nonpayable",
      "type": "function"
    },
    {
      "inputs": [
        {
          "internalType": "address",
          "name": "owner",
          "type": "address"
        }
      ],
      "name": "balanceOf",
      "outputs": [
        {
          "internalType": "uint256",
          "name": "",
          "type": "uint256"
        }
      ],
      "stateMutability": "view",
      "type": "function",
      "constant": true
    },
    {
      "inputs": [
        {
          "internalType": "uint256",
          "name": "tokenId",
          "type": "uint256"
        }
      ],
      "name": "getApproved",
      "outputs": [
        {
          "internalType": "address",
          "name": "",
          "type": "address"
        }
      ],
      "stateMutability": "view",
      "type": "function",
      "constant": true
    },
    {
      "inputs": [
        {
          "internalType": "address",
          "name": "owner",
          "type": "address"
        },
        {
          "internalType": "address",
          "name": "operator",
          "type": "address"
        }
      ],
      "name": "isApprovedForAll",
      "outputs": [
        {
          "internalType": "bool",
          "name": "",
          "type": "bool"
        }
      ],
      "stateMutability": "view",
      "type": "function",
      "constant": true
    },
    {
      "inputs": [],
      "name": "name",
      "outputs": [
        {
          "internalType": "string",
          "name": "",
          "type": "string"
        }
      ],
      "stateMutability": "view",
      "type": "function",
      "constant": true
    },
    {
      "inputs": [],
      "name": "owner",
      "outputs": [
        {
          "internalType": "address",
          "name": "",
          "type": "address"
        }
      ],
      "stateMutability": "view",
      "type": "function",
      "constant": true
    },
    {
      "inputs": [
        {
          "internalType": "uint256",
          "name": "tokenId",
          "type": "uint256"
        }
      ],
      "name": "ownerOf",
      "outputs": [
        {
          "internalType": "address",
          "name": "",
          "type": "address"
        }
      ],
      "stateMutability": "view",
      "type": "function",
      "constant": true
    },
    {
      "inputs": [],
      "name": "renounceOwnership",
      "outputs": [],
      "stateMutability": "nonpayable",
      "type": "function"
    },
    {
      "inputs": [
        {
          "internalType": "address",
          "name": "from",
          "type": "address"
        },
        {
          "internalType": "address",
          "name": "to",
          "type": "address"
        },
        {
          "internalType": "uint256",
          "name": "tokenId",
          "type": "uint256"
        }
      ],
      "name": "safeTransferFrom",
      "outputs": [],
      "stateMutability": "nonpayable",
      "type": "function"
    },
    {
      "inputs": [
        {
          "internalType": "address",
          "name": "from",
          "type": "address"
        },
        {
          "internalType": "address",
          "name": "to",
          "type": "address"
        },
        {
          "internalType": "uint256",
          "name": "tokenId",
          "type": "uint256"
        },
        {
          "internalType": "bytes",
          "name": "data",
          "type": "bytes"
        }
      ],
      "name": "safeTransferFrom",
      "outputs": [],
      "stateMutability": "nonpayable",
      "type": "function"
    },
    {
      "inputs": [
        {
          "internalType": "address",
          "name": "operator",
          "type": "address"
        },
        {
          "internalType": "bool",
          "name": "approved",
          "type": "bool"
        }
      ],
      "name": "setApprovalForAll",
      "outputs": [],
      "stateMutability": "nonpayable",
      "type": "function"
    },
    {
      "inputs": [
        {
          "internalType": "bytes4",
          "name": "interfaceId",
          "type": "bytes4"
        }
      ],
      "name": "supportsInterface",
      "outputs": [
        {
          "internalType": "bool",
          "name": "",
          "type": "bool"
        }
      ],
      "stateMutability": "view",
      "type": "function",
      "constant": true
    },
    {
      "inputs": [],
      "name": "symbol",
      "outputs": [
        {
          "internalType": "string",
          "name": "",
          "type": "string"
        }
      ],
      "stateMutability": "view",
      "type": "function",
      "constant": true
    },
    {
      "inputs": [
        {
          "internalType": "address",
          "name": "from",
          "type": "address"
        },
        {
          "internalType": "address",
          "name": "to",
          "type": "address"
        },
        {
          "internalType": "uint256",
          "name": "tokenId",
          "type": "uint256"
        }
      ],
      "name": "transferFrom",
      "outputs": [],
      "stateMutability": "nonpayable",
      "type": "function"
    },
    {
      "inputs": [
        {
          "internalType": "address",
          "name": "newOwner",
          "type": "address"
        }
      ],
      "name": "transferOwnership",
      "outputs": [],
      "stateMutability": "nonpayable",
      "type": "function"
    },
    {
      "stateMutability": "payable",
      "type": "receive",
      "payable": true
    },
    {
      "inputs": [
        {
          "internalType": "uint256",
          "name": "tokenId",
          "type": "uint256"
        }
      ],
      "name": "tokenURI",
      "outputs": [
        {
          "internalType": "string",
          "name": "",
          "type": "string"
        }
      ],
      "stateMutability": "view",
      "type": "function",
      "constant": true
    },
    {
      "inputs": [
        {
          "internalType": "address",
          "name": "",
          "type": "address"
        },
        {
          "internalType": "address",
          "name": "",
          "type": "address"
        },
        {
          "internalType": "uint256",
          "name": "",
          "type": "uint256"
        },
        {
          "internalType": "bytes",
          "name": "",
          "type": "bytes"
        }
      ],
      "name": "onERC721Received",
      "outputs": [
        {
          "internalType": "bytes4",
          "name": "",
          "type": "bytes4"
        }
      ],
      "stateMutability": "pure",
      "type": "function",
      "constant": true
    },
    {
      "inputs": [
        {
          "internalType": "string",
          "name": "name",
          "type": "string"
        },
        {
          "internalType": "uint256",
          "name": "maxTicketCount",
          "type": "uint256"
        },
        {
          "internalType": "uint256",
          "name": "price",
          "type": "uint256"
        },
        {
          "internalType": "uint256",
          "name": "date",
          "type": "uint256"
        },
        {
          "internalType": "uint256",
          "name": "stopReturnDate",
          "type": "uint256"
        }
      ],
      "name": "createEvent",
      "outputs": [],
      "stateMutability": "nonpayable",
      "type": "function"
    },
    {
      "inputs": [
        {
          "internalType": "uint256",
          "name": "eventId",
          "type": "uint256"
        },
        {
          "internalType": "string",
          "name": "ticketUri",
          "type": "string"
        }
      ],
      "name": "buyTicket",
      "outputs": [],
      "stateMutability": "payable",
      "type": "function",
      "payable": true
    },
    {
      "inputs": [
        {
          "internalType": "uint256",
          "name": "eventId",
          "type": "uint256"
        }
      ],
      "name": "buyReturnedTicket",
      "outputs": [],
      "stateMutability": "payable",
      "type": "function",
      "payable": true
    },
    {
      "inputs": [
        {
          "internalType": "uint256",
          "name": "ticketId",
          "type": "uint256"
        }
      ],
      "name": "returnTicket",
      "outputs": [],
      "stateMutability": "nonpayable",
      "type": "function"
    },
    {
      "inputs": [
        {
          "internalType": "uint256",
          "name": "eventId",
          "type": "uint256"
        }
      ],
      "name": "withdraw",
      "outputs": [],
      "stateMutability": "nonpayable",
      "type": "function"
    },
    {
      "inputs": [],
      "name": "withdrawContract",
      "outputs": [],
      "stateMutability": "nonpayable",
      "type": "function"
    },
    {
      "inputs": [
        {
          "internalType": "uint256",
          "name": "eventId",
          "type": "uint256"
        }
      ],
      "name": "getEvent",
      "outputs": [
        {
          "components": [
            {
              "internalType": "uint256",
              "name": "Id",
              "type": "uint256"
            },
            {
              "internalType": "string",
              "name": "Name",
              "type": "string"
            },
            {
              "internalType": "address",
              "name": "Owner",
              "type": "address"
            },
            {
              "internalType": "uint256",
              "name": "MaxTicketCount",
              "type": "uint256"
            },
            {
              "internalType": "uint256",
              "name": "Price",
              "type": "uint256"
            },
            {
              "internalType": "uint256",
              "name": "Date",
              "type": "uint256"
            },
            {
              "internalType": "uint256",
              "name": "StopReturnDate",
              "type": "uint256"
            },
            {
              "internalType": "uint256[]",
              "name": "TicketsId",
              "type": "uint256[]"
            },
            {
              "internalType": "uint256[]",
              "name": "ReturnedTicketsId",
              "type": "uint256[]"
            },
            {
              "internalType": "bool",
              "name": "Withdrawed",
              "type": "bool"
            }
          ],
          "internalType": "struct TicketSystem.Event",
          "name": "",
          "type": "tuple"
        }
      ],
      "stateMutability": "view",
      "type": "function",
      "constant": true
    },
    {
      "inputs": [],
      "name": "getMyEvents",
      "outputs": [
        {
          "internalType": "uint256[]",
          "name": "",
          "type": "uint256[]"
        }
      ],
      "stateMutability": "view",
      "type": "function",
      "constant": true
    },
    {
      "inputs": [],
      "name": "getEventCount",
      "outputs": [
        {
          "internalType": "uint256",
          "name": "",
          "type": "uint256"
        }
      ],
      "stateMutability": "view",
      "type": "function",
      "constant": true
    },
    {
      "inputs": [
        {
          "internalType": "uint256",
          "name": "eventId",
          "type": "uint256"
        }
      ],
      "name": "getCountOfSoldTickets",
      "outputs": [
        {
          "internalType": "uint256",
          "name": "",
          "type": "uint256"
        }
      ],
      "stateMutability": "view",
      "type": "function",
      "constant": true
    },
    {
      "inputs": [],
      "name": "getMyTickets",
      "outputs": [
        {
          "internalType": "uint256[]",
          "name": "",
          "type": "uint256[]"
        }
      ],
      "stateMutability": "view",
      "type": "function",
      "constant": true
    },
    {
      "inputs": [
        {
          "internalType": "uint256",
          "name": "ticketId",
          "type": "uint256"
        }
      ],
      "name": "getEventByTicket",
      "outputs": [
        {
          "internalType": "uint256",
          "name": "",
          "type": "uint256"
        }
      ],
      "stateMutability": "view",
      "type": "function",
      "constant": true
    },
    {
      "inputs": [],
      "name": "getCurrentTicketId",
      "outputs": [
        {
          "internalType": "uint256",
          "name": "",
          "type": "uint256"
        }
      ],
      "stateMutability": "view",
      "type": "function",
      "constant": true
    },
    {
      "inputs": [
        {
          "internalType": "uint256",
          "name": "eventId",
          "type": "uint256"
        }
      ],
      "name": "getCountOfReturnedTickets",
      "outputs": [
        {
          "internalType": "uint256",
          "name": "",
          "type": "uint256"
        }
      ],
      "stateMutability": "view",
      "type": "function",
      "constant": true
    },
    {
      "inputs": [
        {
          "internalType": "uint256",
          "name": "eventId",
          "type": "uint256"
        }
      ],
      "name": "getFinalAmountOfWithdraw",
      "outputs": [
        {
          "internalType": "uint256",
          "name": "",
          "type": "uint256"
        },
        {
          "internalType": "uint256",
          "name": "",
          "type": "uint256"
        }
      ],
      "stateMutability": "view",
      "type": "function",
      "constant": true
    },
    {
      "inputs": [
        {
          "internalType": "uint256",
          "name": "eventId",
          "type": "uint256"
        },
        {
          "internalType": "uint256",
          "name": "date",
          "type": "uint256"
        }
      ],
      "name": "setDate",
      "outputs": [],
      "stateMutability": "nonpayable",
      "type": "function"
    },
    {
      "inputs": [
        {
          "internalType": "uint256",
          "name": "eventId",
          "type": "uint256"
        },
        {
          "internalType": "uint256",
          "name": "date",
          "type": "uint256"
        }
      ],
      "name": "setStopReturnDate",
      "outputs": [],
      "stateMutability": "nonpayable",
      "type": "function"
    }
  ],
  "bytecode": "0x60806040526000600b556000600f553480156200001b57600080fd5b506040518060400160405280600681526020017f5469636b657400000000000000000000000000000000000000000000000000008152506040518060400160405280600381526020017f54434b000000000000000000000000000000000000000000000000000000000081525081600090816200009991906200041c565b508060019081620000ab91906200041c565b505050620000ce620000c2620000d460201b60201c565b620000dc60201b60201c565b62000503565b600033905090565b6000600660009054906101000a900473ffffffffffffffffffffffffffffffffffffffff16905081600660006101000a81548173ffffffffffffffffffffffffffffffffffffffff021916908373ffffffffffffffffffffffffffffffffffffffff1602179055508173ffffffffffffffffffffffffffffffffffffffff168173ffffffffffffffffffffffffffffffffffffffff167f8be0079c531659141344cd1fd0a4f28419497f9722a3daafe3b4186f6b6457e060405160405180910390a35050565b600081519050919050565b7f4e487b7100000000000000000000000000000000000000000000000000000000600052604160045260246000fd5b7f4e487b7100000000000000000000000000000000000000000000000000000000600052602260045260246000fd5b600060028204905060018216806200022457607f821691505b6020821081036200023a5762000239620001dc565b5b50919050565b60008190508160005260206000209050919050565b60006020601f8301049050919050565b600082821b905092915050565b600060088302620002a47fffffffffffffffffffffffffffffffffffffffffffffffffffffffffffffffff8262000265565b620002b0868362000265565b95508019841693508086168417925050509392505050565b6000819050919050565b6000819050919050565b6000620002fd620002f7620002f184620002c8565b620002d2565b620002c8565b9050919050565b6000819050919050565b6200031983620002dc565b62000331620003288262000304565b84845462000272565b825550505050565b600090565b6200034862000339565b620003558184846200030e565b505050565b5b818110156200037d57620003716000826200033e565b6001810190506200035b565b5050565b601f821115620003cc57620003968162000240565b620003a18462000255565b81016020851015620003b1578190505b620003c9620003c08562000255565b8301826200035a565b50505b505050565b600082821c905092915050565b6000620003f160001984600802620003d1565b1980831691505092915050565b60006200040c8383620003de565b9150826002028217905092915050565b6200042782620001a2565b67ffffffffffffffff811115620004435762000442620001ad565b5b6200044f82546200020b565b6200045c82828562000381565b600060209050601f8311600181146200049457600084156200047f578287015190505b6200048b8582620003fe565b865550620004fb565b601f198416620004a48662000240565b60005b82811015620004ce57848901518255600182019150602085019450602081019050620004a7565b86831015620004ee5784890151620004ea601f891682620003de565b8355505b6001600288020188555050505b505050505050565b615d5780620005136000396000f3fe6080604052600436106101fd5760003560e01c80639afb93cb1161010d578063d4f160ee116100a0578063dbf3f3c91161006f578063dbf3f3c914610756578063e1d10d851461077f578063e985e9c5146107aa578063f2fde38b146107e7578063f3587e461461081057610204565b8063d4f160ee14610688578063d4fcd749146106c5578063d9e48f5c14610702578063da30bd1a1461072d57610204565b8063b88d4fde116100dc578063b88d4fde146105ba578063bc49516b146105e3578063c4930b0d1461060e578063c87b56dd1461064b57610204565b80639afb93cb146105355780639da9df3e146105515780639feb2f5114610568578063a22cb4651461059157610204565b80633548124b1161019057806370a082311161015f57806370a082311461044d578063715018a61461048a57806384dd20d8146104a15780638da5cb5b146104df57806395d89b411461050a57610204565b80633548124b1461037f57806342842e0e146103aa5780636352211e146103d35780636d1884e01461041057610204565b8063150b7a02116101cc578063150b7a02146102d457806323b872dd146103115780632e1a7d4d1461033a57806334b8884e1461036357610204565b806301ffc9a71461020657806306fdde0314610243578063081812fc1461026e578063095ea7b3146102ab57610204565b3661020457005b005b34801561021257600080fd5b5061022d60048036038101906102289190613c70565b610839565b60405161023a9190613cb8565b60405180910390f35b34801561024f57600080fd5b5061025861091b565b6040516102659190613d63565b60405180910390f35b34801561027a57600080fd5b5061029560048036038101906102909190613dbb565b6109ad565b6040516102a29190613e29565b60405180910390f35b3480156102b757600080fd5b506102d260048036038101906102cd9190613e70565b6109f3565b005b3480156102e057600080fd5b506102fb60048036038101906102f69190613f15565b610b0a565b6040516103089190613fac565b60405180910390f35b34801561031d57600080fd5b5061033860048036038101906103339190613fc7565b610b1f565b005b34801561034657600080fd5b50610361600480360381019061035c9190613dbb565b610b7f565b005b61037d60048036038101906103789190613dbb565b610eae565b005b34801561038b57600080fd5b506103946112ee565b6040516103a191906140d8565b60405180910390f35b3480156103b657600080fd5b506103d160048036038101906103cc9190613fc7565b611383565b005b3480156103df57600080fd5b506103fa60048036038101906103f59190613dbb565b6113a3565b6040516104079190613e29565b60405180910390f35b34801561041c57600080fd5b5061043760048036038101906104329190613dbb565b611429565b60405161044491906142b9565b60405180910390f35b34801561045957600080fd5b50610474600480360381019061046f91906142db565b61163c565b6040516104819190614317565b60405180910390f35b34801561049657600080fd5b5061049f6116f3565b005b3480156104ad57600080fd5b506104c860048036038101906104c39190613dbb565b611707565b6040516104d6929190614332565b60405180910390f35b3480156104eb57600080fd5b506104f46117c3565b6040516105019190613e29565b60405180910390f35b34801561051657600080fd5b5061051f6117ed565b60405161052c9190613d63565b60405180910390f35b61054f600480360381019061054a919061448b565b61187f565b005b34801561055d57600080fd5b50610566611c49565b005b34801561057457600080fd5b5061058f600480360381019061058a91906144e7565b611ccd565b005b34801561059d57600080fd5b506105b860048036038101906105b39190614553565b611dd2565b005b3480156105c657600080fd5b506105e160048036038101906105dc9190614634565b611de8565b005b3480156105ef57600080fd5b506105f8611e4a565b6040516106059190614317565b60405180910390f35b34801561061a57600080fd5b5061063560048036038101906106309190613dbb565b611e5b565b6040516106429190614317565b60405180910390f35b34801561065757600080fd5b50610672600480360381019061066d9190613dbb565b611e78565b60405161067f9190613d63565b60405180910390f35b34801561069457600080fd5b506106af60048036038101906106aa9190613dbb565b611e8a565b6040516106bc9190614317565b60405180910390f35b3480156106d157600080fd5b506106ec60048036038101906106e79190613dbb565b611ead565b6040516106f99190614317565b60405180910390f35b34801561070e57600080fd5b50610717611ef4565b6040516107249190614317565b60405180910390f35b34801561073957600080fd5b50610754600480360381019061074f9190613dbb565b611efe565b005b34801561076257600080fd5b5061077d6004803603810190610778919061470d565b61238b565b005b34801561078b57600080fd5b50610794612761565b6040516107a191906140d8565b60405180910390f35b3480156107b657600080fd5b506107d160048036038101906107cc91906147a7565b6127f6565b6040516107de9190613cb8565b60405180910390f35b3480156107f357600080fd5b5061080e600480360381019061080991906142db565b61288a565b005b34801561081c57600080fd5b50610837600480360381019061083291906144e7565b61290d565b005b60007f80ac58cd000000000000000000000000000000000000000000000000000000007bffffffffffffffffffffffffffffffffffffffffffffffffffffffff1916827bffffffffffffffffffffffffffffffffffffffffffffffffffffffff1916148061090457507f5b5e139f000000000000000000000000000000000000000000000000000000007bffffffffffffffffffffffffffffffffffffffffffffffffffffffff1916827bffffffffffffffffffffffffffffffffffffffffffffffffffffffff1916145b80610914575061091382612a12565b5b9050919050565b60606000805461092a90614816565b80601f016020809104026020016040519081016040528092919081815260200182805461095690614816565b80156109a35780601f10610978576101008083540402835291602001916109a3565b820191906000526020600020905b81548152906001019060200180831161098657829003601f168201915b5050505050905090565b60006109b882612a7c565b6004600083815260200190815260200160002060009054906101000a900473ffffffffffffffffffffffffffffffffffffffff169050919050565b60006109fe826113a3565b90508073ffffffffffffffffffffffffffffffffffffffff168373ffffffffffffffffffffffffffffffffffffffff1603610a6e576040517f08c379a0000000000000000000000000000000000000000000000000000000008152600401610a65906148b9565b60405180910390fd5b8073ffffffffffffffffffffffffffffffffffffffff16610a8d612ac7565b73ffffffffffffffffffffffffffffffffffffffff161480610abc5750610abb81610ab6612ac7565b6127f6565b5b610afb576040517f08c379a0000000000000000000000000000000000000000000000000000000008152600401610af29061494b565b60405180910390fd5b610b058383612acf565b505050565b600063150b7a0260e01b905095945050505050565b610b30610b2a612ac7565b82612b88565b610b6f576040517f08c379a0000000000000000000000000000000000000000000000000000000008152600401610b66906149dd565b60405180910390fd5b610b7a838383612c1d565b505050565b600e60009054906101000a900460ff1615610bcf576040517f08c379a0000000000000000000000000000000000000000000000000000000008152600401610bc690614a49565b60405180910390fd5b6001600e60006101000a81548160ff02191690831515021790555042600960008381526020019081526020016000206005015410610c42576040517f08c379a0000000000000000000000000000000000000000000000000000000008152600401610c3990614ab5565b60405180910390fd5b6009600082815260200190815260200160002060020160009054906101000a900473ffffffffffffffffffffffffffffffffffffffff1673ffffffffffffffffffffffffffffffffffffffff163373ffffffffffffffffffffffffffffffffffffffff1614610ce6576040517f08c379a0000000000000000000000000000000000000000000000000000000008152600401610cdd90614b21565b60405180910390fd5b600015156009600083815260200190815260200160002060090160009054906101000a900460ff16151514610d50576040517f08c379a0000000000000000000000000000000000000000000000000000000008152600401610d4790614b8d565b60405180910390fd5b600080610d5c83611707565b915091506000803373ffffffffffffffffffffffffffffffffffffffff1684604051610d8790614bde565b60006040518083038185875af1925050503d8060008114610dc4576040519150601f19603f3d011682016040523d82523d6000602084013e610dc9565b606091505b509150915081610e0e576040517f08c379a0000000000000000000000000000000000000000000000000000000008152600401610e0590614c3f565b60405180910390fd5b60016009600087815260200190815260200160002060090160006101000a81548160ff02191690831515021790555082600f54610e4b9190614c8e565b600f819055507f9da6493a92039daf47d1f2d7a782299c5994c6323eb1e972f69c432089ec52bf853386604051610e8493929190614cc2565b60405180910390a1505050506000600e60006101000a81548160ff02191690831515021790555050565b42600960008381526020019081526020016000206005015411610f06576040517f08c379a0000000000000000000000000000000000000000000000000000000008152600401610efd90614d45565b60405180910390fd5b6000600960008381526020019081526020016000206008018054905011610f62576040517f08c379a0000000000000000000000000000000000000000000000000000000008152600401610f5990614db1565b60405180910390fd5b6009600082815260200190815260200160002060040154341015610fbb576040517f08c379a0000000000000000000000000000000000000000000000000000000008152600401610fb290614e1d565b60405180910390fd5b6000803073ffffffffffffffffffffffffffffffffffffffff166009600085815260200190815260200160002060040154604051610ff890614bde565b60006040518083038185875af1925050503d8060008114611035576040519150601f19603f3d011682016040523d82523d6000602084013e61103a565b606091505b50915091508161107f576040517f08c379a000000000000000000000000000000000000000000000000000000000815260040161107690614e89565b60405180910390fd5b60096000848152602001908152602001600020600401543411156111755760006009600085815260200190815260200160002060040154346110c19190614ea9565b90506000803373ffffffffffffffffffffffffffffffffffffffff16836040516110ea90614bde565b60006040518083038185875af1925050503d8060008114611127576040519150601f19603f3d011682016040523d82523d6000602084013e61112c565b606091505b509150915081611171576040517f08c379a000000000000000000000000000000000000000000000000000000000815260040161116890614f29565b60405180910390fd5b5050505b60006001600960008681526020019081526020016000206008018054905061119d9190614ea9565b905060006009600086815260200190815260200160002060080182815481106111c9576111c8614f49565b5b906000526020600020015490503073ffffffffffffffffffffffffffffffffffffffff166342842e0e3033846040518463ffffffff1660e01b815260040161121393929190614f78565b600060405180830381600087803b15801561122d57600080fd5b505af1158015611241573d6000803e3d6000fd5b505050506009600086815260200190815260200160002060080180548061126b5761126a614faf565b5b60019003818190600052602060002001600090559055600d60003373ffffffffffffffffffffffffffffffffffffffff1673ffffffffffffffffffffffffffffffffffffffff1681526020019081526020016000208190806001815401808255809150506001900390600052602060002001600090919091909150555050505050565b6060600c60003373ffffffffffffffffffffffffffffffffffffffff1673ffffffffffffffffffffffffffffffffffffffff16815260200190815260200160002080548060200260200160405190810160405280929190818152602001828054801561137957602002820191906000526020600020905b815481526020019060010190808311611365575b5050505050905090565b61139e83838360405180602001604052806000815250611de8565b505050565b6000806113af83612f16565b9050600073ffffffffffffffffffffffffffffffffffffffff168173ffffffffffffffffffffffffffffffffffffffff1603611420576040517f08c379a00000000000000000000000000000000000000000000000000000000081526004016114179061502a565b60405180910390fd5b80915050919050565b611431613b2f565b60096000838152602001908152602001600020604051806101400160405290816000820154815260200160018201805461146a90614816565b80601f016020809104026020016040519081016040528092919081815260200182805461149690614816565b80156114e35780601f106114b8576101008083540402835291602001916114e3565b820191906000526020600020905b8154815290600101906020018083116114c657829003601f168201915b505050505081526020016002820160009054906101000a900473ffffffffffffffffffffffffffffffffffffffff1673ffffffffffffffffffffffffffffffffffffffff1673ffffffffffffffffffffffffffffffffffffffff16815260200160038201548152602001600482015481526020016005820154815260200160068201548152602001600782018054806020026020016040519081016040528092919081815260200182805480156115b957602002820191906000526020600020905b8154815260200190600101908083116115a5575b505050505081526020016008820180548060200260200160405190810160405280929190818152602001828054801561161157602002820191906000526020600020905b8154815260200190600101908083116115fd575b505050505081526020016009820160009054906101000a900460ff1615151515815250509050919050565b60008073ffffffffffffffffffffffffffffffffffffffff168273ffffffffffffffffffffffffffffffffffffffff16036116ac576040517f08c379a00000000000000000000000000000000000000000000000000000000081526004016116a3906150bc565b60405180910390fd5b600360008373ffffffffffffffffffffffffffffffffffffffff1673ffffffffffffffffffffffffffffffffffffffff168152602001908152602001600020549050919050565b6116fb612f53565b6117056000612fd1565b565b60008060006009600085815260200190815260200160002060080180549050600960008681526020019081526020016000206007018054905061174a9190614ea9565b9050600060646009600087815260200190815260200160002060040154611771919061510b565b905060008282611781919061513c565b90506000816009600089815260200190815260200160002060040154856117a8919061513c565b6117b29190614ea9565b905080829550955050505050915091565b6000600660009054906101000a900473ffffffffffffffffffffffffffffffffffffffff16905090565b6060600180546117fc90614816565b80601f016020809104026020016040519081016040528092919081815260200182805461182890614816565b80156118755780601f1061184a57610100808354040283529160200191611875565b820191906000526020600020905b81548152906001019060200180831161185857829003601f168201915b5050505050905090565b426009600084815260200190815260200160002060050154116118d7576040517f08c379a00000000000000000000000000000000000000000000000000000000081526004016118ce90614d45565b60405180910390fd5b6009600083815260200190815260200160002060030154600960008481526020019081526020016000206007018054905010611948576040517f08c379a000000000000000000000000000000000000000000000000000000000815260040161193f906151ca565b60405180910390fd5b60096000838152602001908152602001600020600401543410156119a1576040517f08c379a000000000000000000000000000000000000000000000000000000000815260040161199890614e1d565b60405180910390fd5b6000803073ffffffffffffffffffffffffffffffffffffffff1660096000868152602001908152602001600020600401546040516119de90614bde565b60006040518083038185875af1925050503d8060008114611a1b576040519150601f19603f3d011682016040523d82523d6000602084013e611a20565b606091505b509150915081611a65576040517f08c379a0000000000000000000000000000000000000000000000000000000008152600401611a5c90614e89565b60405180910390fd5b6009600085815260200190815260200160002060040154341115611b5b576000600960008681526020019081526020016000206004015434611aa79190614ea9565b90506000803373ffffffffffffffffffffffffffffffffffffffff1683604051611ad090614bde565b60006040518083038185875af1925050503d8060008114611b0d576040519150601f19603f3d011682016040523d82523d6000602084013e611b12565b606091505b509150915081611b57576040517f08c379a0000000000000000000000000000000000000000000000000000000008152600401611b4e90614f29565b60405180910390fd5b5050505b6000611b676008613097565b9050611b7360086130a5565b611b7d33826130bb565b611b8781856130d9565b6009600086815260200190815260200160002060070181908060018154018082558091505060019003906000526020600020016000909190919091505584600a600083815260200190815260200160002081905550600d60003373ffffffffffffffffffffffffffffffffffffffff1673ffffffffffffffffffffffffffffffffffffffff1681526020019081526020016000208190806001815401808255809150506001900390600052602060002001600090919091909150555050505050565b611c51612f53565b6000803373ffffffffffffffffffffffffffffffffffffffff16600f54604051611c7a90614bde565b60006040518083038185875af1925050503d8060008114611cb7576040519150601f19603f3d011682016040523d82523d6000602084013e611cbc565b606091505b50915091506000600f819055505050565b6009600083815260200190815260200160002060020160009054906101000a900473ffffffffffffffffffffffffffffffffffffffff1673ffffffffffffffffffffffffffffffffffffffff163373ffffffffffffffffffffffffffffffffffffffff1614611d71576040517f08c379a0000000000000000000000000000000000000000000000000000000008152600401611d6890614b21565b60405180910390fd5b428111611db3576040517f08c379a0000000000000000000000000000000000000000000000000000000008152600401611daa90615236565b60405180910390fd5b8060096000848152602001908152602001600020600601819055505050565b611de4611ddd612ac7565b8383613146565b5050565b611df9611df3612ac7565b83612b88565b611e38576040517f08c379a0000000000000000000000000000000000000000000000000000000008152600401611e2f906149dd565b60405180910390fd5b611e44848484846132b2565b50505050565b6000611e566008613097565b905090565b6000600a6000838152602001908152602001600020549050919050565b6060611e838261330e565b9050919050565b600060096000838152602001908152602001600020600801805490509050919050565b600060096000838152602001908152602001600020600801805490506009600084815260200190815260200160002060070180549050611eed9190614ea9565b9050919050565b6000600b54905090565b600e60009054906101000a900460ff1615611f4e576040517f08c379a0000000000000000000000000000000000000000000000000000000008152600401611f4590614a49565b60405180910390fd5b6001600e60006101000a81548160ff021916908315150217905550611f72816113a3565b73ffffffffffffffffffffffffffffffffffffffff163373ffffffffffffffffffffffffffffffffffffffff1614611fdf576040517f08c379a0000000000000000000000000000000000000000000000000000000008152600401611fd6906152a2565b60405180910390fd5b6000600a60008381526020019081526020016000205490504260096000838152602001908152602001600020600601541161201957600080fd5b6000803373ffffffffffffffffffffffffffffffffffffffff16600960008581526020019081526020016000206004015460405161205690614bde565b60006040518083038185875af1925050503d8060008114612093576040519150601f19603f3d011682016040523d82523d6000602084013e612098565b606091505b5091509150816120dd576040517f08c379a00000000000000000000000000000000000000000000000000000000081526004016120d49061530e565b60405180910390fd5b6120e8333086611383565b6009600084815260200190815260200160002060080184908060018154018082558091505060019003906000526020600020016000909190919091505560006001600d60003373ffffffffffffffffffffffffffffffffffffffff1673ffffffffffffffffffffffffffffffffffffffff168152602001908152602001600020805490506121769190614ea9565b90505b600081106123695784600d60003373ffffffffffffffffffffffffffffffffffffffff1673ffffffffffffffffffffffffffffffffffffffff16815260200190815260200160002082815481106121d3576121d2614f49565b5b90600052602060002001540361235657600d60003373ffffffffffffffffffffffffffffffffffffffff1673ffffffffffffffffffffffffffffffffffffffff1681526020019081526020016000206001600d60003373ffffffffffffffffffffffffffffffffffffffff1673ffffffffffffffffffffffffffffffffffffffff168152602001908152602001600020805490506122719190614ea9565b8154811061228257612281614f49565b5b9060005260206000200154600d60003373ffffffffffffffffffffffffffffffffffffffff1673ffffffffffffffffffffffffffffffffffffffff16815260200190815260200160002082815481106122de576122dd614f49565b5b9060005260206000200181905550600d60003373ffffffffffffffffffffffffffffffffffffffff1673ffffffffffffffffffffffffffffffffffffffff16815260200190815260200160002080548061233b5761233a614faf565b5b60019003818190600052602060002001600090559055612369565b80806123619061532e565b915050612179565b505050506000600e60006101000a81548160ff02191690831515021790555050565b4282116123cd576040517f08c379a00000000000000000000000000000000000000000000000000000000081526004016123c490615236565b60405180910390fd5b42811161240f576040517f08c379a000000000000000000000000000000000000000000000000000000000815260040161240690615236565b60405180910390fd5b60008411612452576040517f08c379a0000000000000000000000000000000000000000000000000000000008152600401612449906153c9565b60405180910390fd5b600b6000815480929190612465906153e9565b91905055506000604051806101400160405280600b54815260200188888080601f016020809104026020016040519081016040528093929190818152602001838380828437600081840152601f19601f8201169050808301925050505050505081526020013373ffffffffffffffffffffffffffffffffffffffff168152602001868152602001858152602001848152602001838152602001600067ffffffffffffffff81111561251957612518614360565b5b6040519080825280602002602001820160405280156125475781602001602082028036833780820191505090505b508152602001600067ffffffffffffffff81111561256857612567614360565b5b6040519080825280602002602001820160405280156125965781602001602082028036833780820191505090505b5081526020016000151581525090508060096000600b5481526020019081526020016000206000820151816000015560208201518160010190816125da91906155dd565b5060408201518160020160006101000a81548173ffffffffffffffffffffffffffffffffffffffff021916908373ffffffffffffffffffffffffffffffffffffffff160217905550606082015181600301556080820151816004015560a0820151816005015560c0820151816006015560e0820151816007019080519060200190612666929190613b9a565b50610100820151816008019080519060200190612684929190613b9a565b506101208201518160090160006101000a81548160ff021916908315150217905550905050600c60003373ffffffffffffffffffffffffffffffffffffffff1673ffffffffffffffffffffffffffffffffffffffff168152602001908152602001600020600b5490806001815401808255809150506001900390600052602060002001600090919091909150557fb994281d7686a37affd64a7123eeafa87033b5968cb664a0eede83c7ddaf5ed1600b54888833898989896040516127509897969594939291906156dc565b60405180910390a150505050505050565b6060600d60003373ffffffffffffffffffffffffffffffffffffffff1673ffffffffffffffffffffffffffffffffffffffff1681526020019081526020016000208054806020026020016040519081016040528092919081815260200182805480156127ec57602002820191906000526020600020905b8154815260200190600101908083116127d8575b5050505050905090565b6000600560008473ffffffffffffffffffffffffffffffffffffffff1673ffffffffffffffffffffffffffffffffffffffff16815260200190815260200160002060008373ffffffffffffffffffffffffffffffffffffffff1673ffffffffffffffffffffffffffffffffffffffff16815260200190815260200160002060009054906101000a900460ff16905092915050565b612892612f53565b600073ffffffffffffffffffffffffffffffffffffffff168173ffffffffffffffffffffffffffffffffffffffff1603612901576040517f08c379a00000000000000000000000000000000000000000000000000000000081526004016128f8906157c6565b60405180910390fd5b61290a81612fd1565b50565b6009600083815260200190815260200160002060020160009054906101000a900473ffffffffffffffffffffffffffffffffffffffff1673ffffffffffffffffffffffffffffffffffffffff163373ffffffffffffffffffffffffffffffffffffffff16146129b1576040517f08c379a00000000000000000000000000000000000000000000000000000000081526004016129a890614b21565b60405180910390fd5b4281116129f3576040517f08c379a00000000000000000000000000000000000000000000000000000000081526004016129ea90615236565b60405180910390fd5b8060096000848152602001908152602001600020600501819055505050565b60007f01ffc9a7000000000000000000000000000000000000000000000000000000007bffffffffffffffffffffffffffffffffffffffffffffffffffffffff1916827bffffffffffffffffffffffffffffffffffffffffffffffffffffffff1916149050919050565b612a8581613420565b612ac4576040517f08c379a0000000000000000000000000000000000000000000000000000000008152600401612abb9061502a565b60405180910390fd5b50565b600033905090565b816004600083815260200190815260200160002060006101000a81548173ffffffffffffffffffffffffffffffffffffffff021916908373ffffffffffffffffffffffffffffffffffffffff160217905550808273ffffffffffffffffffffffffffffffffffffffff16612b42836113a3565b73ffffffffffffffffffffffffffffffffffffffff167f8c5be1e5ebec7d5bd14f71427d1e84f3dd0314c0f7b2291e5b200ac8c7c3b92560405160405180910390a45050565b600080612b94836113a3565b90508073ffffffffffffffffffffffffffffffffffffffff168473ffffffffffffffffffffffffffffffffffffffff161480612bd65750612bd581856127f6565b5b80612c1457508373ffffffffffffffffffffffffffffffffffffffff16612bfc846109ad565b73ffffffffffffffffffffffffffffffffffffffff16145b91505092915050565b8273ffffffffffffffffffffffffffffffffffffffff16612c3d826113a3565b73ffffffffffffffffffffffffffffffffffffffff1614612c93576040517f08c379a0000000000000000000000000000000000000000000000000000000008152600401612c8a90615858565b60405180910390fd5b600073ffffffffffffffffffffffffffffffffffffffff168273ffffffffffffffffffffffffffffffffffffffff1603612d02576040517f08c379a0000000000000000000000000000000000000000000000000000000008152600401612cf9906158ea565b60405180910390fd5b612d0f8383836001613461565b8273ffffffffffffffffffffffffffffffffffffffff16612d2f826113a3565b73ffffffffffffffffffffffffffffffffffffffff1614612d85576040517f08c379a0000000000000000000000000000000000000000000000000000000008152600401612d7c90615858565b60405180910390fd5b6004600082815260200190815260200160002060006101000a81549073ffffffffffffffffffffffffffffffffffffffff02191690556001600360008573ffffffffffffffffffffffffffffffffffffffff1673ffffffffffffffffffffffffffffffffffffffff168152602001908152602001600020600082825403925050819055506001600360008473ffffffffffffffffffffffffffffffffffffffff1673ffffffffffffffffffffffffffffffffffffffff16815260200190815260200160002060008282540192505081905550816002600083815260200190815260200160002060006101000a81548173ffffffffffffffffffffffffffffffffffffffff021916908373ffffffffffffffffffffffffffffffffffffffff160217905550808273ffffffffffffffffffffffffffffffffffffffff168473ffffffffffffffffffffffffffffffffffffffff167fddf252ad1be2c89b69c2b068fc378daa952ba7f163c4a11628f55a4df523b3ef60405160405180910390a4612f118383836001613467565b505050565b60006002600083815260200190815260200160002060009054906101000a900473ffffffffffffffffffffffffffffffffffffffff169050919050565b612f5b612ac7565b73ffffffffffffffffffffffffffffffffffffffff16612f796117c3565b73ffffffffffffffffffffffffffffffffffffffff1614612fcf576040517f08c379a0000000000000000000000000000000000000000000000000000000008152600401612fc690615956565b60405180910390fd5b565b6000600660009054906101000a900473ffffffffffffffffffffffffffffffffffffffff16905081600660006101000a81548173ffffffffffffffffffffffffffffffffffffffff021916908373ffffffffffffffffffffffffffffffffffffffff1602179055508173ffffffffffffffffffffffffffffffffffffffff168173ffffffffffffffffffffffffffffffffffffffff167f8be0079c531659141344cd1fd0a4f28419497f9722a3daafe3b4186f6b6457e060405160405180910390a35050565b600081600001549050919050565b6001816000016000828254019250508190555050565b6130d582826040518060200160405280600081525061346d565b5050565b6130e282613420565b613121576040517f08c379a0000000000000000000000000000000000000000000000000000000008152600401613118906159e8565b60405180910390fd5b8060076000848152602001908152602001600020908161314191906155dd565b505050565b8173ffffffffffffffffffffffffffffffffffffffff168373ffffffffffffffffffffffffffffffffffffffff16036131b4576040517f08c379a00000000000000000000000000000000000000000000000000000000081526004016131ab90615a54565b60405180910390fd5b80600560008573ffffffffffffffffffffffffffffffffffffffff1673ffffffffffffffffffffffffffffffffffffffff16815260200190815260200160002060008473ffffffffffffffffffffffffffffffffffffffff1673ffffffffffffffffffffffffffffffffffffffff16815260200190815260200160002060006101000a81548160ff0219169083151502179055508173ffffffffffffffffffffffffffffffffffffffff168373ffffffffffffffffffffffffffffffffffffffff167f17307eab39ab6107e8899845ad3d59bd9653f200f220920489ca2b5937696c31836040516132a59190613cb8565b60405180910390a3505050565b6132bd848484612c1d565b6132c9848484846134c8565b613308576040517f08c379a00000000000000000000000000000000000000000000000000000000081526004016132ff90615ae6565b60405180910390fd5b50505050565b606061331982612a7c565b600060076000848152602001908152602001600020805461333990614816565b80601f016020809104026020016040519081016040528092919081815260200182805461336590614816565b80156133b25780601f10613387576101008083540402835291602001916133b2565b820191906000526020600020905b81548152906001019060200180831161339557829003601f168201915b5050505050905060006133c361364f565b905060008151036133d857819250505061341b565b60008251111561340d5780826040516020016133f5929190615b42565b6040516020818303038152906040529250505061341b565b61341684613666565b925050505b919050565b60008073ffffffffffffffffffffffffffffffffffffffff1661344283612f16565b73ffffffffffffffffffffffffffffffffffffffff1614159050919050565b50505050565b50505050565b61347783836136ce565b61348460008484846134c8565b6134c3576040517f08c379a00000000000000000000000000000000000000000000000000000000081526004016134ba90615ae6565b60405180910390fd5b505050565b60006134e98473ffffffffffffffffffffffffffffffffffffffff166138eb565b15613642578373ffffffffffffffffffffffffffffffffffffffff1663150b7a02613512612ac7565b8786866040518563ffffffff1660e01b81526004016135349493929190615bbb565b6020604051808303816000875af192505050801561357057506040513d601f19601f8201168201806040525081019061356d9190615c1c565b60015b6135f2573d80600081146135a0576040519150601f19603f3d011682016040523d82523d6000602084013e6135a5565b606091505b5060008151036135ea576040517f08c379a00000000000000000000000000000000000000000000000000000000081526004016135e190615ae6565b60405180910390fd5b805181602001fd5b63150b7a0260e01b7bffffffffffffffffffffffffffffffffffffffffffffffffffffffff1916817bffffffffffffffffffffffffffffffffffffffffffffffffffffffff191614915050613647565b600190505b949350505050565b606060405180602001604052806000815250905090565b606061367182612a7c565b600061367b61364f565b9050600081511161369b57604051806020016040528060008152506136c6565b806136a58461390e565b6040516020016136b6929190615b42565b6040516020818303038152906040525b915050919050565b600073ffffffffffffffffffffffffffffffffffffffff168273ffffffffffffffffffffffffffffffffffffffff160361373d576040517f08c379a000000000000000000000000000000000000000000000000000000000815260040161373490615c95565b60405180910390fd5b61374681613420565b15613786576040517f08c379a000000000000000000000000000000000000000000000000000000000815260040161377d90615d01565b60405180910390fd5b613794600083836001613461565b61379d81613420565b156137dd576040517f08c379a00000000000000000000000000000000000000000000000000000000081526004016137d490615d01565b60405180910390fd5b6001600360008473ffffffffffffffffffffffffffffffffffffffff1673ffffffffffffffffffffffffffffffffffffffff16815260200190815260200160002060008282540192505081905550816002600083815260200190815260200160002060006101000a81548173ffffffffffffffffffffffffffffffffffffffff021916908373ffffffffffffffffffffffffffffffffffffffff160217905550808273ffffffffffffffffffffffffffffffffffffffff16600073ffffffffffffffffffffffffffffffffffffffff167fddf252ad1be2c89b69c2b068fc378daa952ba7f163c4a11628f55a4df523b3ef60405160405180910390a46138e7600083836001613467565b5050565b6000808273ffffffffffffffffffffffffffffffffffffffff163b119050919050565b60606000600161391d846139dc565b01905060008167ffffffffffffffff81111561393c5761393b614360565b5b6040519080825280601f01601f19166020018201604052801561396e5781602001600182028036833780820191505090505b509050600082602001820190505b6001156139d1578080600190039150507f3031323334353637383961626364656600000000000000000000000000000000600a86061a8153600a85816139c5576139c46150dc565b5b0494506000850361397c575b819350505050919050565b600080600090507a184f03e93ff9f4daa797ed6e38ed64bf6a1f0100000000000000008310613a3a577a184f03e93ff9f4daa797ed6e38ed64bf6a1f0100000000000000008381613a3057613a2f6150dc565b5b0492506040810190505b6d04ee2d6d415b85acef81000000008310613a77576d04ee2d6d415b85acef81000000008381613a6d57613a6c6150dc565b5b0492506020810190505b662386f26fc100008310613aa657662386f26fc100008381613a9c57613a9b6150dc565b5b0492506010810190505b6305f5e1008310613acf576305f5e1008381613ac557613ac46150dc565b5b0492506008810190505b6127108310613af4576127108381613aea57613ae96150dc565b5b0492506004810190505b60648310613b175760648381613b0d57613b0c6150dc565b5b0492506002810190505b600a8310613b26576001810190505b80915050919050565b6040518061014001604052806000815260200160608152602001600073ffffffffffffffffffffffffffffffffffffffff1681526020016000815260200160008152602001600081526020016000815260200160608152602001606081526020016000151581525090565b828054828255906000526020600020908101928215613bd6579160200282015b82811115613bd5578251825591602001919060010190613bba565b5b509050613be39190613be7565b5090565b5b80821115613c00576000816000905550600101613be8565b5090565b6000604051905090565b600080fd5b600080fd5b60007fffffffff0000000000000000000000000000000000000000000000000000000082169050919050565b613c4d81613c18565b8114613c5857600080fd5b50565b600081359050613c6a81613c44565b92915050565b600060208284031215613c8657613c85613c0e565b5b6000613c9484828501613c5b565b91505092915050565b60008115159050919050565b613cb281613c9d565b82525050565b6000602082019050613ccd6000830184613ca9565b92915050565b600081519050919050565b600082825260208201905092915050565b60005b83811015613d0d578082015181840152602081019050613cf2565b60008484015250505050565b6000601f19601f8301169050919050565b6000613d3582613cd3565b613d3f8185613cde565b9350613d4f818560208601613cef565b613d5881613d19565b840191505092915050565b60006020820190508181036000830152613d7d8184613d2a565b905092915050565b6000819050919050565b613d9881613d85565b8114613da357600080fd5b50565b600081359050613db581613d8f565b92915050565b600060208284031215613dd157613dd0613c0e565b5b6000613ddf84828501613da6565b91505092915050565b600073ffffffffffffffffffffffffffffffffffffffff82169050919050565b6000613e1382613de8565b9050919050565b613e2381613e08565b82525050565b6000602082019050613e3e6000830184613e1a565b92915050565b613e4d81613e08565b8114613e5857600080fd5b50565b600081359050613e6a81613e44565b92915050565b60008060408385031215613e8757613e86613c0e565b5b6000613e9585828601613e5b565b9250506020613ea685828601613da6565b9150509250929050565b600080fd5b600080fd5b600080fd5b60008083601f840112613ed557613ed4613eb0565b5b8235905067ffffffffffffffff811115613ef257613ef1613eb5565b5b602083019150836001820283011115613f0e57613f0d613eba565b5b9250929050565b600080600080600060808688031215613f3157613f30613c0e565b5b6000613f3f88828901613e5b565b9550506020613f5088828901613e5b565b9450506040613f6188828901613da6565b935050606086013567ffffffffffffffff811115613f8257613f81613c13565b5b613f8e88828901613ebf565b92509250509295509295909350565b613fa681613c18565b82525050565b6000602082019050613fc16000830184613f9d565b92915050565b600080600060608486031215613fe057613fdf613c0e565b5b6000613fee86828701613e5b565b9350506020613fff86828701613e5b565b925050604061401086828701613da6565b9150509250925092565b600081519050919050565b600082825260208201905092915050565b6000819050602082019050919050565b61404f81613d85565b82525050565b60006140618383614046565b60208301905092915050565b6000602082019050919050565b60006140858261401a565b61408f8185614025565b935061409a83614036565b8060005b838110156140cb5781516140b28882614055565b97506140bd8361406d565b92505060018101905061409e565b5085935050505092915050565b600060208201905081810360008301526140f2818461407a565b905092915050565b600082825260208201905092915050565b600061411682613cd3565b61412081856140fa565b9350614130818560208601613cef565b61413981613d19565b840191505092915050565b61414d81613e08565b82525050565b600082825260208201905092915050565b600061416f8261401a565b6141798185614153565b935061418483614036565b8060005b838110156141b557815161419c8882614055565b97506141a78361406d565b925050600181019050614188565b5085935050505092915050565b6141cb81613c9d565b82525050565b6000610140830160008301516141ea6000860182614046565b5060208301518482036020860152614202828261410b565b91505060408301516142176040860182614144565b50606083015161422a6060860182614046565b50608083015161423d6080860182614046565b5060a083015161425060a0860182614046565b5060c083015161426360c0860182614046565b5060e083015184820360e086015261427b8282614164565b9150506101008301518482036101008601526142978282614164565b9150506101208301516142ae6101208601826141c2565b508091505092915050565b600060208201905081810360008301526142d381846141d1565b905092915050565b6000602082840312156142f1576142f0613c0e565b5b60006142ff84828501613e5b565b91505092915050565b61431181613d85565b82525050565b600060208201905061432c6000830184614308565b92915050565b60006040820190506143476000830185614308565b6143546020830184614308565b9392505050565b600080fd5b7f4e487b7100000000000000000000000000000000000000000000000000000000600052604160045260246000fd5b61439882613d19565b810181811067ffffffffffffffff821117156143b7576143b6614360565b5b80604052505050565b60006143ca613c04565b90506143d6828261438f565b919050565b600067ffffffffffffffff8211156143f6576143f5614360565b5b6143ff82613d19565b9050602081019050919050565b82818337600083830152505050565b600061442e614429846143db565b6143c0565b90508281526020810184848401111561444a5761444961435b565b5b61445584828561440c565b509392505050565b600082601f83011261447257614471613eb0565b5b813561448284826020860161441b565b91505092915050565b600080604083850312156144a2576144a1613c0e565b5b60006144b085828601613da6565b925050602083013567ffffffffffffffff8111156144d1576144d0613c13565b5b6144dd8582860161445d565b9150509250929050565b600080604083850312156144fe576144fd613c0e565b5b600061450c85828601613da6565b925050602061451d85828601613da6565b9150509250929050565b61453081613c9d565b811461453b57600080fd5b50565b60008135905061454d81614527565b92915050565b6000806040838503121561456a57614569613c0e565b5b600061457885828601613e5b565b92505060206145898582860161453e565b9150509250929050565b600067ffffffffffffffff8211156145ae576145ad614360565b5b6145b782613d19565b9050602081019050919050565b60006145d76145d284614593565b6143c0565b9050828152602081018484840111156145f3576145f261435b565b5b6145fe84828561440c565b509392505050565b600082601f83011261461b5761461a613eb0565b5b813561462b8482602086016145c4565b91505092915050565b6000806000806080858703121561464e5761464d613c0e565b5b600061465c87828801613e5b565b945050602061466d87828801613e5b565b935050604061467e87828801613da6565b925050606085013567ffffffffffffffff81111561469f5761469e613c13565b5b6146ab87828801614606565b91505092959194509250565b60008083601f8401126146cd576146cc613eb0565b5b8235905067ffffffffffffffff8111156146ea576146e9613eb5565b5b60208301915083600182028301111561470657614705613eba565b5b9250929050565b60008060008060008060a0878903121561472a57614729613c0e565b5b600087013567ffffffffffffffff81111561474857614747613c13565b5b61475489828a016146b7565b9650965050602061476789828a01613da6565b945050604061477889828a01613da6565b935050606061478989828a01613da6565b925050608061479a89828a01613da6565b9150509295509295509295565b600080604083850312156147be576147bd613c0e565b5b60006147cc85828601613e5b565b92505060206147dd85828601613e5b565b9150509250929050565b7f4e487b7100000000000000000000000000000000000000000000000000000000600052602260045260246000fd5b6000600282049050600182168061482e57607f821691505b602082108103614841576148406147e7565b5b50919050565b7f4552433732313a20617070726f76616c20746f2063757272656e74206f776e6560008201527f7200000000000000000000000000000000000000000000000000000000000000602082015250565b60006148a3602183613cde565b91506148ae82614847565b604082019050919050565b600060208201905081810360008301526148d281614896565b9050919050565b7f4552433732313a20617070726f76652063616c6c6572206973206e6f7420746f60008201527f6b656e206f776e6572206f7220617070726f76656420666f7220616c6c000000602082015250565b6000614935603d83613cde565b9150614940826148d9565b604082019050919050565b6000602082019050818103600083015261496481614928565b9050919050565b7f4552433732313a2063616c6c6572206973206e6f7420746f6b656e206f776e6560008201527f72206f7220617070726f76656400000000000000000000000000000000000000602082015250565b60006149c7602d83613cde565b91506149d28261496b565b604082019050919050565b600060208201905081810360008301526149f6816149ba565b9050919050565b7f4e6f2072652d656e7472616e6379000000000000000000000000000000000000600082015250565b6000614a33600e83613cde565b9150614a3e826149fd565b602082019050919050565b60006020820190508181036000830152614a6281614a26565b9050919050565b7f5469636b65742073616c65206973206e6f74206f766572000000000000000000600082015250565b6000614a9f601783613cde565b9150614aaa82614a69565b602082019050919050565b60006020820190508181036000830152614ace81614a92565b9050919050565b7f596f7520617265206e6f74206f776e6572206f66204576656e74000000000000600082015250565b6000614b0b601a83613cde565b9150614b1682614ad5565b602082019050919050565b60006020820190508181036000830152614b3a81614afe565b9050919050565b7f416c726564792077697468647261776564000000000000000000000000000000600082015250565b6000614b77601183613cde565b9150614b8282614b41565b602082019050919050565b60006020820190508181036000830152614ba681614b6a565b9050919050565b600081905092915050565b50565b6000614bc8600083614bad565b9150614bd382614bb8565b600082019050919050565b6000614be982614bbb565b9150819050919050565b7f4661696c656420746f2073656e64204554480000000000000000000000000000600082015250565b6000614c29601283613cde565b9150614c3482614bf3565b602082019050919050565b60006020820190508181036000830152614c5881614c1c565b9050919050565b7f4e487b7100000000000000000000000000000000000000000000000000000000600052601160045260246000fd5b6000614c9982613d85565b9150614ca483613d85565b9250828201905080821115614cbc57614cbb614c5f565b5b92915050565b6000606082019050614cd76000830186614308565b614ce46020830185613e1a565b614cf16040830184614308565b949350505050565b7f5469636b65742073616c65206973206f76657200000000000000000000000000600082015250565b6000614d2f601383613cde565b9150614d3a82614cf9565b602082019050919050565b60006020820190508181036000830152614d5e81614d22565b9050919050565b7f4e6f207469636b657473206c6566740000000000000000000000000000000000600082015250565b6000614d9b600f83613cde565b9150614da682614d65565b602082019050919050565b60006020820190508181036000830152614dca81614d8e565b9050919050565b7f73656e7420455448203c205469636b6574507269636500000000000000000000600082015250565b6000614e07601683613cde565b9150614e1282614dd1565b602082019050919050565b60006020820190508181036000830152614e3681614dfa565b9050919050565b7f6661696c656420746f2073656e74204554480000000000000000000000000000600082015250565b6000614e73601283613cde565b9150614e7e82614e3d565b602082019050919050565b60006020820190508181036000830152614ea281614e66565b9050919050565b6000614eb482613d85565b9150614ebf83613d85565b9250828203905081811115614ed757614ed6614c5f565b5b92915050565b7f6661696c656420746f2073656e74206f7665727061796d656e74000000000000600082015250565b6000614f13601a83613cde565b9150614f1e82614edd565b602082019050919050565b60006020820190508181036000830152614f4281614f06565b9050919050565b7f4e487b7100000000000000000000000000000000000000000000000000000000600052603260045260246000fd5b6000606082019050614f8d6000830186613e1a565b614f9a6020830185613e1a565b614fa76040830184614308565b949350505050565b7f4e487b7100000000000000000000000000000000000000000000000000000000600052603160045260246000fd5b7f4552433732313a20696e76616c696420746f6b656e2049440000000000000000600082015250565b6000615014601883613cde565b915061501f82614fde565b602082019050919050565b6000602082019050818103600083015261504381615007565b9050919050565b7f4552433732313a2061646472657373207a65726f206973206e6f74206120766160008201527f6c6964206f776e65720000000000000000000000000000000000000000000000602082015250565b60006150a6602983613cde565b91506150b18261504a565b604082019050919050565b600060208201905081810360008301526150d581615099565b9050919050565b7f4e487b7100000000000000000000000000000000000000000000000000000000600052601260045260246000fd5b600061511682613d85565b915061512183613d85565b925082615131576151306150dc565b5b828204905092915050565b600061514782613d85565b915061515283613d85565b925082820261516081613d85565b9150828204841483151761517757615176614c5f565b5b5092915050565b7f5469636b6574732061726520736f6c6400000000000000000000000000000000600082015250565b60006151b4601083613cde565b91506151bf8261517e565b602082019050919050565b600060208201905081810360008301526151e3816151a7565b9050919050565b7f446174652066726f6d2074686520706173740000000000000000000000000000600082015250565b6000615220601283613cde565b915061522b826151ea565b602082019050919050565b6000602082019050818103600083015261524f81615213565b9050919050565b7f596f7520617265206e6f74206f776e6572206f66205469636b65740000000000600082015250565b600061528c601b83613cde565b915061529782615256565b602082019050919050565b600060208201905081810360008301526152bb8161527f565b9050919050565b7f6661696c656420746f2073656e64204554480000000000000000000000000000600082015250565b60006152f8601283613cde565b9150615303826152c2565b602082019050919050565b60006020820190508181036000830152615327816152eb565b9050919050565b600061533982613d85565b91506000820361534c5761534b614c5f565b5b600182039050919050565b7f436f756e74206f66207469636b657473206d757374206265206174206c65617360008201527f7420310000000000000000000000000000000000000000000000000000000000602082015250565b60006153b3602383613cde565b91506153be82615357565b604082019050919050565b600060208201905081810360008301526153e2816153a6565b9050919050565b60006153f482613d85565b91507fffffffffffffffffffffffffffffffffffffffffffffffffffffffffffffffff820361542657615425614c5f565b5b600182019050919050565b60008190508160005260206000209050919050565b60006020601f8301049050919050565b600082821b905092915050565b6000600883026154937fffffffffffffffffffffffffffffffffffffffffffffffffffffffffffffffff82615456565b61549d8683615456565b95508019841693508086168417925050509392505050565b6000819050919050565b60006154da6154d56154d084613d85565b6154b5565b613d85565b9050919050565b6000819050919050565b6154f4836154bf565b615508615500826154e1565b848454615463565b825550505050565b600090565b61551d615510565b6155288184846154eb565b505050565b5b8181101561554c57615541600082615515565b60018101905061552e565b5050565b601f8211156155915761556281615431565b61556b84615446565b8101602085101561557a578190505b61558e61558685615446565b83018261552d565b50505b505050565b600082821c905092915050565b60006155b460001984600802615596565b1980831691505092915050565b60006155cd83836155a3565b9150826002028217905092915050565b6155e682613cd3565b67ffffffffffffffff8111156155ff576155fe614360565b5b6156098254614816565b615614828285615550565b600060209050601f8311600181146156475760008415615635578287015190505b61563f85826155c1565b8655506156a7565b601f19841661565586615431565b60005b8281101561567d57848901518255600182019150602085019450602081019050615658565b8683101561569a5784890151615696601f8916826155a3565b8355505b6001600288020188555050505b505050505050565b60006156bb8385613cde565b93506156c883858461440c565b6156d183613d19565b840190509392505050565b600060e0820190506156f1600083018b614308565b818103602083015261570481898b6156af565b90506157136040830188613e1a565b6157206060830187614308565b61572d6080830186614308565b61573a60a0830185614308565b61574760c0830184614308565b9998505050505050505050565b7f4f776e61626c653a206e6577206f776e657220697320746865207a65726f206160008201527f6464726573730000000000000000000000000000000000000000000000000000602082015250565b60006157b0602683613cde565b91506157bb82615754565b604082019050919050565b600060208201905081810360008301526157df816157a3565b9050919050565b7f4552433732313a207472616e736665722066726f6d20696e636f72726563742060008201527f6f776e6572000000000000000000000000000000000000000000000000000000602082015250565b6000615842602583613cde565b915061584d826157e6565b604082019050919050565b6000602082019050818103600083015261587181615835565b9050919050565b7f4552433732313a207472616e7366657220746f20746865207a65726f2061646460008201527f7265737300000000000000000000000000000000000000000000000000000000602082015250565b60006158d4602483613cde565b91506158df82615878565b604082019050919050565b60006020820190508181036000830152615903816158c7565b9050919050565b7f4f776e61626c653a2063616c6c6572206973206e6f7420746865206f776e6572600082015250565b6000615940602083613cde565b915061594b8261590a565b602082019050919050565b6000602082019050818103600083015261596f81615933565b9050919050565b7f45524337323155524953746f726167653a2055524920736574206f66206e6f6e60008201527f6578697374656e7420746f6b656e000000000000000000000000000000000000602082015250565b60006159d2602e83613cde565b91506159dd82615976565b604082019050919050565b60006020820190508181036000830152615a01816159c5565b9050919050565b7f4552433732313a20617070726f766520746f2063616c6c657200000000000000600082015250565b6000615a3e601983613cde565b9150615a4982615a08565b602082019050919050565b60006020820190508181036000830152615a6d81615a31565b9050919050565b7f4552433732313a207472616e7366657220746f206e6f6e20455243373231526560008201527f63656976657220696d706c656d656e7465720000000000000000000000000000602082015250565b6000615ad0603283613cde565b9150615adb82615a74565b604082019050919050565b60006020820190508181036000830152615aff81615ac3565b9050919050565b600081905092915050565b6000615b1c82613cd3565b615b268185615b06565b9350615b36818560208601613cef565b80840191505092915050565b6000615b4e8285615b11565b9150615b5a8284615b11565b91508190509392505050565b600081519050919050565b600082825260208201905092915050565b6000615b8d82615b66565b615b978185615b71565b9350615ba7818560208601613cef565b615bb081613d19565b840191505092915050565b6000608082019050615bd06000830187613e1a565b615bdd6020830186613e1a565b615bea6040830185614308565b8181036060830152615bfc8184615b82565b905095945050505050565b600081519050615c1681613c44565b92915050565b600060208284031215615c3257615c31613c0e565b5b6000615c4084828501615c07565b91505092915050565b7f4552433732313a206d696e7420746f20746865207a65726f2061646472657373600082015250565b6000615c7f602083613cde565b9150615c8a82615c49565b602082019050919050565b60006020820190508181036000830152615cae81615c72565b9050919050565b7f4552433732313a20746f6b656e20616c7265616479206d696e74656400000000600082015250565b6000615ceb601c83613cde565b9150615cf682615cb5565b602082019050919050565b60006020820190508181036000830152615d1a81615cde565b905091905056fea2646970667358221220fb46dbe1cb9ed8844a98f4801442d964db1bcba4bdd6cb9d9d04ec674487da2d64736f6c63430008130033",
  "immutableReferences": {},
  "source": "// SPDX-License-Identifier: MIT\r\npragma solidity ^0.8.9;\r\n\r\nimport \"@openzeppelin/contracts/token/ERC721/ERC721.sol\";\r\nimport \"@openzeppelin/contracts/token/ERC721/IERC721Receiver.sol\";\r\nimport \"@openzeppelin/contracts/token/ERC721/extensions/ERC721URIStorage.sol\";\r\nimport \"@openzeppelin/contracts/access/Ownable.sol\";\r\nimport \"@openzeppelin/contracts/utils/Counters.sol\";\r\n\r\n\r\ncontract TicketSystem is ERC721, Ownable, IERC721Receiver, ERC721URIStorage {\r\n\r\n    // Solidity Events\r\n    event CreateEvent(uint id, string name, address owner, uint maxTicketCount, uint price, uint date, uint returnDate);\r\n    event Withdraw(uint eventId, address owner, uint withdrawedAmount);\r\n\r\n    // Modifier of reentrancy security\r\n    modifier noReentrant() {\r\n        require(!locked, \"No re-entrancy\");\r\n        locked = true;\r\n        _;\r\n        locked = false;\r\n    }\r\n\r\n    function _burn(uint256 tokenId) internal override(ERC721, ERC721URIStorage) {\r\n        super._burn(tokenId);\r\n    }\r\n\r\n    function tokenURI(uint256 tokenId) public view override(ERC721, ERC721URIStorage) returns (string memory)\r\n    {\r\n        return super.tokenURI(tokenId);\r\n    }\r\n\r\n    function onERC721Received(address, address, uint256, bytes calldata) external pure returns (bytes4) {\r\n        return IERC721Receiver.onERC721Received.selector;\r\n    }\r\n\r\n    // Counter of tokens\r\n    using Counters for Counters.Counter;\r\n    Counters.Counter private _tokenIdCounter;\r\n\r\n    // Struct of event\r\n    struct Event {\r\n        uint Id;\r\n        string Name;\r\n        address Owner;\r\n        uint MaxTicketCount;\r\n        uint Price;\r\n        uint Date;\r\n        uint StopReturnDate;\r\n        uint[] TicketsId;\r\n        uint[] ReturnedTicketsId;\r\n        bool Withdrawed;\r\n    }\r\n\r\n    // EventId => Event\r\n    mapping(uint => Event) private _Events;\r\n    // TicketId => EventId\r\n    mapping(uint => uint) private _TicketToEvent;\r\n\r\n    uint private _EventCount = 0;\r\n\r\n    // User => array of EventsId\r\n    mapping(address => uint[]) private _UserToEvents;\r\n\r\n    // User => array of TicketsId\r\n    mapping(address => uint[]) private _UserToTickets;\r\n\r\n    // Variable for reentrancy modifier\r\n    bool private locked; \r\n\r\n    // Variable for withdraw contract balance\r\n    uint private withdrawBalance = 0;\r\n\r\n    constructor() ERC721(\"Ticket\", \"TCK\") {}\r\n\r\n    receive() external payable{}\r\n    fallback() external payable{}\r\n\r\n\r\n    function createEvent(string calldata name, uint maxTicketCount, uint price, uint date, uint stopReturnDate) external \r\n    {\r\n        require(date > block.timestamp, \"Date from the past\");\r\n        require(stopReturnDate > block.timestamp, \"Date from the past\");\r\n        require(maxTicketCount > 0, \"Count of tickets must be at least 1\");\r\n    \r\n        _EventCount ++;\r\n       \r\n        // Event creation\r\n        Event memory e = Event(_EventCount, name, msg.sender, maxTicketCount, price, date, stopReturnDate, new uint[](0), new uint[](0), false);\r\n        _Events[_EventCount] = e;\r\n      \r\n        // Add Event to user\r\n        _UserToEvents[msg.sender].push(_EventCount);\r\n\r\n        emit CreateEvent(_EventCount, name, msg.sender, maxTicketCount, price, date, stopReturnDate);\r\n    }\r\n\r\n\r\n    // There are two functions to purchase a ticket\r\n    // 1. buyTicket() create new ticket (token)\r\n    // 2. buyReturnedTicket() sell returned ticket, transfer ticket from contract to buyer\r\n\r\n    function buyTicket(uint eventId, string memory ticketUri) external payable \r\n    {\r\n        require(_Events[eventId].Date > block.timestamp, \"Ticket sale is over\");\r\n        require((_Events[eventId].TicketsId.length < _Events[eventId].MaxTicketCount), \"Tickets are sold\");\r\n        require(msg.value >= _Events[eventId].Price, \"sent ETH < TicketPrice\");\r\n        \r\n        // Ticket payment\r\n        (bool sent, bytes memory data) = address(this).call{value: _Events[eventId].Price}(\"\");        \r\n        require(sent, \"failed to sent ETH\");\r\n\r\n        // Refund of overpayment\r\n        if(msg.value > _Events[eventId].Price){\r\n            uint overpayment = msg.value - _Events[eventId].Price;\r\n            (bool sent2, bytes memory data2) = msg.sender.call{value: overpayment}(\"\");\r\n            require(sent2, \"failed to sent overpayment\");  \r\n        }\r\n\r\n        uint256 ticketId = _tokenIdCounter.current();\r\n        _tokenIdCounter.increment();\r\n       \r\n        // Ticket mint\r\n        _safeMint(msg.sender, ticketId);\r\n        _setTokenURI(ticketId, ticketUri);\r\n\r\n        // Add ticket to event\r\n        _Events[eventId].TicketsId.push(ticketId);\r\n        _TicketToEvent[ticketId] = eventId;\r\n        // Add ticket to user\r\n        _UserToTickets[msg.sender].push(ticketId);\r\n    }\r\n    \r\n\r\n    function buyReturnedTicket(uint eventId) external payable {\r\n        require(_Events[eventId].Date > block.timestamp, \"Ticket sale is over\");\r\n        require(_Events[eventId].ReturnedTicketsId.length > 0, \"No tickets left\");\r\n        require(msg.value >= _Events[eventId].Price, \"sent ETH < TicketPrice\");\r\n       \r\n        // Ticket payment\r\n        (bool sent, bytes memory data) = address(this).call{value: _Events[eventId].Price}(\"\");        \r\n        require(sent, \"failed to sent ETH\");\r\n\r\n        // Refund of overpayment\r\n        if(msg.value > _Events[eventId].Price){\r\n            uint overpayment = msg.value - _Events[eventId].Price;\r\n            (bool sent2, bytes memory data2) = msg.sender.call{value: overpayment}(\"\");\r\n            require(sent2, \"failed to sent overpayment\");  \r\n        }\r\n\r\n        // Get last of returned tickets\r\n        uint lastIndex = _Events[eventId].ReturnedTicketsId.length - 1;\r\n        uint ticketId = _Events[eventId].ReturnedTicketsId[lastIndex];\r\n\r\n        // Ticket transfer\r\n        ERC721(address(this)).safeTransferFrom(address(this), msg.sender, ticketId);\r\n\r\n        // Removing ticket from returned tickets array\r\n        _Events[eventId].ReturnedTicketsId.pop();\r\n\r\n        // Add ticket to user\r\n        _UserToTickets[msg.sender].push(ticketId);\r\n    }  \r\n\r\n\r\n    function returnTicket(uint ticketId) external noReentrant \r\n    {\r\n        require(msg.sender == ownerOf(ticketId), \"You are not owner of Ticket\");\r\n        // Get ticket by Event\r\n        uint eventId = _TicketToEvent[ticketId];\r\n        require(_Events[eventId].StopReturnDate > block.timestamp);\r\n\r\n        // Payment of return\r\n        (bool sent, bytes memory data) = msg.sender.call{value: _Events[eventId].Price}(\"\");    \r\n        require(sent, \"failed to send ETH\");\r\n\r\n        // Transfer of ticket from user to contract\r\n        safeTransferFrom(msg.sender, address(this), ticketId);\r\n\r\n        // Add ticket to returned ticket array\r\n        _Events[eventId].ReturnedTicketsId.push(ticketId);\r\n\r\n        // Remove ticket from user tickets\r\n        for(uint i = _UserToTickets[msg.sender].length-1; i >= 0; i--){\r\n            if(_UserToTickets[msg.sender][i] == ticketId){\r\n                _UserToTickets[msg.sender][i] = _UserToTickets[msg.sender][_UserToTickets[msg.sender].length-1];\r\n                _UserToTickets[msg.sender].pop();\r\n                break; \r\n            }\r\n        }\r\n    }\r\n\r\n\r\n    function withdraw(uint eventId) external noReentrant{\r\n        require(_Events[eventId].Date < block.timestamp, \"Ticket sale is not over\");\r\n        require(msg.sender == _Events[eventId].Owner, \"You are not owner of Event\");\r\n        require(_Events[eventId].Withdrawed == false, \"Alredy withdrawed\");\r\n\r\n        (uint finalAmount, uint finalFee) = getFinalAmountOfWithdraw(eventId);\r\n\r\n        // Withdraw payment to owner of Event\r\n        (bool sent, bytes memory data) = msg.sender.call{value: finalAmount}(\"\");        \r\n        require(sent, \"Failed to send ETH\");\r\n\r\n        _Events[eventId].Withdrawed = true;\r\n        \r\n        withdrawBalance = withdrawBalance + finalFee;\r\n\r\n        emit Withdraw(eventId, msg.sender, finalAmount);\r\n\r\n    }\r\n\r\n    function withdrawContract() external onlyOwner{\r\n        (bool sent, bytes memory data) = msg.sender.call{value: withdrawBalance}(\"\");\r\n        withdrawBalance = 0;\r\n    }\r\n\r\n\r\n    //GETTERS\r\n    function getEvent(uint eventId) public view returns(Event memory){\r\n        return _Events[eventId];\r\n    }\r\n\r\n    function getMyEvents() public view returns(uint [] memory){\r\n        return _UserToEvents[msg.sender];\r\n    }\r\n\r\n    function getEventCount() public view returns(uint){\r\n        return _EventCount;\r\n    }\r\n\r\n    function getCountOfSoldTickets(uint eventId)public view returns(uint){\r\n        return  _Events[eventId].TicketsId.length - _Events[eventId].ReturnedTicketsId.length;\r\n    }\r\n\r\n    function getMyTickets() public view returns(uint [] memory){\r\n        return _UserToTickets[msg.sender];\r\n    }\r\n\r\n    function getEventByTicket(uint ticketId) public view returns(uint){\r\n        return _TicketToEvent[ticketId];\r\n    }\r\n\r\n    function getCurrentTicketId() public view returns(uint){\r\n        return _tokenIdCounter.current();\r\n    }\r\n\r\n    function getCountOfReturnedTickets(uint eventId) public view returns (uint){\r\n        return _Events[eventId].ReturnedTicketsId.length;\r\n    }\r\n\r\n    function getFinalAmountOfWithdraw(uint eventId) public view returns (uint, uint){\r\n        //VPOET WITHDRAW\r\n        uint soldTickets = _Events[eventId].TicketsId.length - _Events[eventId].ReturnedTicketsId.length;\r\n        //POPLATEK 1% z prodan vstupenky\r\n        uint feePerTicket = _Events[eventId].Price / 100;\r\n        uint finalFee = feePerTicket * soldTickets;\r\n        uint finalAmount = soldTickets * _Events[eventId].Price - finalFee;\r\n        return (finalAmount, finalFee);\r\n    }\r\n\r\n    //SETTERS\r\n    function setDate(uint eventId, uint date) public {\r\n        require(msg.sender == _Events[eventId].Owner, \"You are not owner of Event\");\r\n        require(date > block.timestamp, \"Date from the past\");\r\n        _Events[eventId].Date = date;\r\n    }\r\n\r\n    \r\n    function setStopReturnDate(uint eventId, uint date) public {\r\n        require(msg.sender == _Events[eventId].Owner, \"You are not owner of Event\");\r\n        require(date > block.timestamp, \"Date from the past\");\r\n        _Events[eventId].StopReturnDate = date;\r\n    }\r\n\r\n}",
  "sourcePath": "C:\\Users\\petr\\Documents\\vyska\\bakalar\\projektBc\\projectVue\\contracts\\TicketSystem.sol",
  "compiler": {
    "name": "solc",
    "version": "0.8.19+commit.7dd6d404.Emscripten.clang"
  },
  "schemaVersion": "3.4.13",
  "updatedAt": "2023-05-13T12:37:27.145Z",
  "networkType": "ethereum",
  "devdoc": {
    "events": {
      "Approval(address,address,uint256)": {
        "details": "Emitted when `owner` enables `approved` to manage the `tokenId` token."
      },
      "ApprovalForAll(address,address,bool)": {
        "details": "Emitted when `owner` enables or disables (`approved`) `operator` to manage all of its assets."
      },
      "Transfer(address,address,uint256)": {
        "details": "Emitted when `tokenId` token is transferred from `from` to `to`."
      }
    },
    "kind": "dev",
    "methods": {
      "approve(address,uint256)": {
        "details": "See {IERC721-approve}."
      },
      "balanceOf(address)": {
        "details": "See {IERC721-balanceOf}."
      },
      "getApproved(uint256)": {
        "details": "See {IERC721-getApproved}."
      },
      "isApprovedForAll(address,address)": {
        "details": "See {IERC721-isApprovedForAll}."
      },
      "name()": {
        "details": "See {IERC721Metadata-name}."
      },
      "owner()": {
        "details": "Returns the address of the current owner."
      },
      "ownerOf(uint256)": {
        "details": "See {IERC721-ownerOf}."
      },
      "renounceOwnership()": {
        "details": "Leaves the contract without owner. It will not be possible to call `onlyOwner` functions anymore. Can only be called by the current owner. NOTE: Renouncing ownership will leave the contract without an owner, thereby removing any functionality that is only available to the owner."
      },
      "safeTransferFrom(address,address,uint256)": {
        "details": "See {IERC721-safeTransferFrom}."
      },
      "safeTransferFrom(address,address,uint256,bytes)": {
        "details": "See {IERC721-safeTransferFrom}."
      },
      "setApprovalForAll(address,bool)": {
        "details": "See {IERC721-setApprovalForAll}."
      },
      "supportsInterface(bytes4)": {
        "details": "See {IERC165-supportsInterface}."
      },
      "symbol()": {
        "details": "See {IERC721Metadata-symbol}."
      },
      "transferFrom(address,address,uint256)": {
        "details": "See {IERC721-transferFrom}."
      },
      "transferOwnership(address)": {
        "details": "Transfers ownership of the contract to a new account (`newOwner`). Can only be called by the current owner."
      }
    },
    "version": 1
  },
  "userdoc": {
    "kind": "user",
    "methods": {},
    "version": 1
  }
}